:020000040800F2
:1000000040280020290200083102000833020008BD
:10001000350200083702000839020008000000001D
:100020000000000000000000000000009101000836
:100030003D02000800000000D5010008B9160008C4
:10004000430200084302000843020008430200087C
:10005000430200084302000843020008430200086C
:10006000430200084302000843020008430200085C
:10007000430200084302000843020008430200084C
:10008000430200084302000843020008430200083C
:10009000430200084302000843020008110D000853
:1000A000430200084302000843020008430200081C
:1000B000430200084302000843020008430200080C
:1000C00043020008430200084302000843020008FC
:1000D00043020008430200084302000843020008EC
:1000E00043020008430200084302000800F002F83F
:1000F00000F03FF80AA090E8000C82448344AAF183
:100100000107DA4501D100F034F8AFF2090EBAE880
:100110000F0013F0010F18BFFB1A43F0010318473B
:10012000C4340000E4340000103A24BF78C878C119
:10013000FAD8520724BF30C830C144BF04680C60ED
:10014000704700000023002400250026103A28BF35
:1001500078C1FBD8520728BF30C148BF0B60704739
:10016000642900F04181002070471FB51FBD10B504
:1001700010BD00F04CFB1146FFF7F7FF01F008FC43
:1001800000F06AFB03B4FFF7F2FF03BC00F072FB60
:10019000224B19680868B0E8F00F80F30988BFF3B4
:1001A0006F8F4FF0000080F311884EF00D0E7047F6
:1001B0000000000006480068006880F3088862B606
:1001C00061B6BFF34F8FBFF36F8F00DF00BF00BF7B
:1001D00008ED00E0EFF30980BFF36F8F0F4B1A6853
:1001E00020E9F00F106008B54FF0500080F311883F
:1001F000BFF34F8FBFF36F8F02F0F4FB4FF000009F
:1002000080F31188BDE8084019680868B0E8F00F6D
:1002100080F30988BFF36F8F704700BF0000002094
:10022000EFF3058070470000094880470948004700
:10023000FEE7FEE7FEE7FEE7FEE7FEE7FEE7FEE796
:10024000FEE7FEE704480549054A064B70470000F3
:10025000E5160008ED00000840220020402800209C
:10026000402400204024002053EA020C00F0698062
:100270002DE9F04B4FF00006002B1FBFB3FA83F5BA
:1002800003FA05F424FA05F65E4012BF1643B2FAEB
:1002900082F502FA05F4C5F120051EBF22FA05FC1D
:1002A00044EA0C04203556EA044C4FEA144418BFC3
:1002B000641C4FF000084FF00009904271EB030CF2
:1002C00039D3002919BFB1FA81F701FA07F6B0FA5C
:1002D00080F700FA07F6C7F120071EBF20FA07FCD7
:1002E00046EA0C062037B6FBF4FCA7EB0507103FE7
:1002F00007F01F0BCBF120060CFA0BFB2CFA06F6CD
:1003000044BFB3460026202FA4BF5E464FF0000B2B
:100310005BEA060C08BF4FF0010B19EB0B09ABFBB6
:10032000027C48EB0608C01B06FB02CC0BFB03CC8F
:1003300071EB0C01C1E70B46024641464846BDE859
:10034000F08B13B54FF000004FF00001AFF30080C9
:10035000BDE81C40704700000FB41CB5074B06AA4F
:100360007B4469460090059800F007FA0020694632
:1003700000F016FA1CBC5DF814FB00003D04000000
:100380002DE9F0410E460446002020622046E16837
:10039000884730B3252805D0D4E901219047206A49
:1003A000401CF2E7E168204600278847050018D086
:1003B000A5F14100192802D820354FF400673246D4
:1003C000294620462760FFF7CBFE40B1012804D024
:1003D000F61D26F007060836D8E7361DD6E728466C
:1003E000DAE7206ABDE8F0812DE9F04106460024F5
:1003F00010687529314616A510D0AFF3008000288B
:1004000002DA404213A507E031688A0701D512A538
:1004100002E0490704D511A5012401E0AFF30080F3
:1004200000210A2206F1240709E0B0FBF2FCB0FB30
:10043000F2F302FB1C00303078541846491C0028A7
:10044000F3D123462A463046BDE8F04100F036B9E4
:10045000000000002D0000002B0000002000000024
:1004600010B5431C02E010F8011B71B18107FAD1ED
:100470004FF0013202C88C1A8C4314EAC211F9D031
:10048000C01A0A0603D0C01E10BDC01A10BD0A044F
:1004900001D0801E10BD0902FCD0401E10BD40EAF4
:1004A000010370B59B072ED14FF00136042A2AD3E1
:1004B00008C810C99D1B9D43121F15EAC61517D009
:1004C000D8B2E1B2401A50EA056110D198B2A1B297
:1004D000401A50EA05410AD123F07F4024F07F41C1
:1004E000401A50EA052102D1180EA0EB146070BD2D
:1004F000A342DBD018BA21BA884201D9012070BDCD
:100500004FF0FF3070BD0AB9002070BD10F8013BFC
:1005100011F8014B63B1A3420AD1521E08D010F862
:10052000013B11F8014B1BB1A34201D1521EEDD189
:10053000181B70BD032A40F2308010F0030C00F04D
:10054000158011F8013BBCF1020F624498BF11F80D
:1005500001CB00F8013B38BF11F8013BA2F10402C6
:1005600098BF00F801CB38BF00F8013B11F003033E
:1005700000F01B81083AC0F0088051F8043B083AAB
:1005800051F804CBA0E80810F5E7121D5CBF51F844
:10059000043B40F8043BAFF30080D20724BF11F8BE
:1005A000013B11F801CB48BF11F8012B24BF00F823
:1005B000013B00F801CB48BF00F8012B704702F067
:1005C000FF0343EA032242EA024200F002B84FF07E
:1005D00000020429C0F0128010F0030C00F01B8010
:1005E000CCF1040CBCF1020F18BF00F8012BA8BF1E
:1005F00020F8022BA1EB0C0100F00DB85FEAC17CE2
:1006000024BF00F8012B00F8012B48BF00F8012B94
:1006100070474FF0000200B51346944696462039C5
:1006200022BFA0E80C50A0E80C50B1F12001BFF4AB
:10063000F7AF090728BFA0E80C5048BF0CC05DF811
:1006400004EB890028BF40F8042B08BF704748BF5F
:1006500020F8022B11F0804F18BF00F8012B7047D3
:1006600010B5044610F0030F08BF11F0030F40F05F
:1006700015804FF0013E121FC0F20E8051F8043B6E
:10068000A3EB0E0C2CEA030C1CEACE1C08BF40F8AE
:10069000043BF0D0A1F1040102F10402521E08DB78
:1006A00011F8013B002B00F8013BF7D11146FFF791
:1006B0008EFF204610BD7047704770472DE9F04708
:1006C0000D4699469246044600F1240801688806C2
:1006D00004D5E06921F01001216000E00120A8426A
:1006E00001DD471B00E00027A1697A1902EB090030
:1006F000081AA0612078C00602D42046AFF300801B
:10070000002608E0D4E901211AF806009047206A83
:10071000401C761C20624E45F4DB2078C0060AD5CA
:100720002046AFF3008006E0D4E901213020904755
:10073000206A401C2062381EA7F10107F4DC07E0A4
:10074000D4E9012118F805009047206A401C206276
:10075000281EA5F10105F3DC2046AFF300802078C8
:10076000000602D50220BDE8F0870120FBE700006B
:1007700001694A1C02610878704700B58FB0CDE965
:1007800001310021059105497944CDE90310114655
:100790006846FFF7F5FD0FB000BD0000E5FFFFFF65
:1007A0000A6802F8010B0A60704710B5203AC0F0E1
:1007B0000B80B1E81850203AA0E81850B1E8185062
:1007C000A0E81850BFF4F5AF5FEA027C24BFB1E89F
:1007D0001850A0E8185044BF18C918C0BDE8104010
:1007E0005FEA827C24BF51F8043B40F8043B08BF19
:1007F0007047D20728BF31F8023B48BF11F8012BE0
:1008000028BF20F8023B48BF00F8012B704775460F
:1008100000F02CF8AE4605006946534620F007006C
:10082000854618B020B5FFF70DFDBDE820404FF01C
:1008300000064FF000074FF000084FF0000B21F0CA
:100840000701AC46ACE8C009ACE8C009ACE8C00997
:10085000ACE8C0098D46704710B50446AFF3008080
:100860002046BDE81040FFF78DBC000000487047EF
:10087000E021002001491820ABBEFEE7260002005F
:100880007047000008B50121082000F02DFE10205F
:100890008DF8030003208DF802002020ADF8000041
:1008A0006946064800F0A6FA01F008F80022012186
:1008B000082002F033F90249086008BD000C01402D
:1008C0008800002001B505480068002804D00023F6
:1008D0001A46694602F0A4F908BD0000880000200D
:1008E00008B54FF4FA754FF0FF36124C1AE09DF838
:1008F0000000012804D0022807D0032812D10DE0FF
:100900001421322000F0CAFF0CE03221084600F02A
:10091000C5FF1421322000F0C1FF03E03221284638
:1009200000F0BCFF32466946206802F02BFA01282D
:10093000F8D1DCE78800002010B5044602F0C2FBC5
:1009400001280AD04FF47A72A4FB02010023FFF7BA
:100950008BFCBDE8104001F03FBF2046BDE81040D1
:1009600000F01EB83EB50121042000F0AFFD472085
:10097000ADF800000020ADF802004FF6FF71ADF8B1
:100980000410ADF80600054C6946204600F038FF1B
:100990000121204600F0DAFE3EBD000000080040C4
:1009A00030B504464FF47A7502E0284600F004F8AA
:1009B000641E601CF9D130BD002806D003490A88A6
:1009C0000B889B1A9BB28342FAD3704724080040DD
:1009D00086B000250024032600F0F7FB012000F07C
:1009E000DFFB00F077FF00F0B1FDDFF8D0B2DFF8F9
:1009F000D0924FF0805800270DF1040A322205A949
:100A0000DBF8000002F0BEF90128F7D1FFF75AFF2A
:100A1000C9F80080BFF34F8FBFF36F8F55B1012D21
:100A20002AD0022D6FD0032D6ED00025002400F0B7
:100A300051FFE3E79DF814002A280FD04128DDD1AB
:100A4000022500248DF8047000F0B6FB9DA000F094
:100A5000DCFB0021012000F023FCCFE7012500246E
:100A60008DF8047000F0A8FB98A000F0CEFB0021E8
:100A7000012000F015FCC1E79DF81400232815D0D3
:100A80002A285AD0A0F130010929B7D8082CB5D2AC
:100A90002146641CE4B20AF801002A208DF81000F7
:100AA0008DF8117004A800F0B0FBA7E70AF80470F5
:100AB00001A800F0BFFC28B100F02EFF032600259E
:100AC00000249BE70320FFF7FDFEC9F80080BFF379
:100AD0004F8FBFF36F8F0EB1761EF6B2AEB13046B8
:100AE00000F026FC4FF4FA6001F076FE00F064FBA3
:100AF00076A000F08AFB0021012000F0D1FB002449
:100B00008DF804707AE723E079E01E254FF47A76B9
:100B100000F0CCFC284600F0E1FB304601F05CFE22
:100B20006D1E002DF4DC03260021DBF8000002F02E
:100B30001DF8002500F0CEFE60E7002400F03CFB2D
:100B400062A000F062FB0021012000F0A9FB55E744
:100B50009DF81400232815D02A2845D0A0F1300193
:100B6000092988D8082C86D22146641CE4B20AF8E8
:100B700001002A208DF810008DF8117004A800F0F3
:100B800044FB3BE70AF8047001A800F053FC98B15D
:100B90000220FFF797FEC9F80080BFF34F8FBFF325
:100BA0006F8F032500F008FB4BA000F02EFB002107
:100BB000012000F075FB15E00320FFF783FEC9F864
:100BC0000080BFF34F8FBFF36F8F00F0F5FA45A1A0
:100BD000002000F024FB4FF4FA6001F0FDFD002539
:100BE00000F078FE002409E7002400F0E5FA35A0C3
:100BF00000F00BFB0021012000F052FBFEE69DF807
:100C00001400232814D02A284DD0A0F1300109293E
:100C100092D8082C90D22146641CE4B20AF8010054
:100C20008DF810008DF8117004A800F0EEFAE5E6DA
:100C30000AF80470042C1BD20320FFF743FEC9F806
:100C40000080BFF34F8FBFF36F8F00F0B5FA29A07C
:100C500000F0DBFA40F2DC5001F0BEFD00F0ACFA2F
:100C60001DA000F0D2FA0021012000F019FB18E0CD
:100C700001A800F001FC0220FFF724FEC9F8008063
:100C8000BFF34F8FBFF36F8F00F096FA1CA10020C7
:100C900000F0C5FA4FF4FA6001F09EFD002500F067
:100CA00019FE0024AAE6002400F086FA0AA000F04B
:100CB000ACFA0021012000F0F3FA9FE68400002046
:100CC00004ED00E050494E2063753A004E686170B3
:100CD0002050494E3A00000050494E206D6F693A4D
:100CE000000000005361692050494E2041646D6945
:100CF0006E210000517561206E67616E2100000059
:100D0000446F69207468616E6820636F6E670000CD
:100D100010B54FF48074204600F00EF8002804D07F
:100D20002046BDE8104000F001B810BD0149086040
:100D3000704700001404014001460020054A126873
:100D40000A40044B14331B680B4202D0002A00D027
:100D5000012070470004014030B51B4A83790168C7
:100D6000002B2AD013688B431360111D0B68046895
:100D7000A3430B60017911440B68046823430B60A3
:100D8000114C08342168036899432160231D1968B8
:100D90000568A94319604179102905D011440A68F2
:100DA000006802430A6030BD216802681143216077
:100DB000196800680143196030BD00791044026869
:100DC0008A43026030BD00000004014010B58A076C
:100DD000120F0F23934021F00304054921448C682E
:100DE0009C438C608B68904003438B6010BD000077
:100DF000000001402DE9F0410022CC7804F00F03FF
:100E0000E40601D58C7823430C784FF00F0714F0DB
:100E1000FF0F4FF0010C1CD005680CFA02F40E888D
:100E20002640A64211D1960007FA06F825EA0805E1
:100E300003FA06F848EA0505CE78282E02D0482E97
:100E400002D002E0446100E00461521C082AE4D3AD
:100E500005600A88FF2A1ED94568002202F10806AB
:100E60000CFA06F40E882640A64210D1960007FA26
:100E700006F825EA080503FA06F848EA0505CE78DB
:100E8000282E00D14461CE78482E00D10461521C36
:100E9000082AE3D34560BDE8F0810246002092684D
:100EA0000A4200D0012070474161704701617047DC
:100EB00038B50121082000F017FB14208DF803003D
:100EC000C020ADF8000003208DF80200094C6946EF
:100ED0002046FFF78FFF80212046FFF7E7FF4021E4
:100EE0002046FFF7E3FF012001F00CFE02490860F5
:100EF00038BD0000000C01407C00002010B500F05F
:100F000013FB0C4C80212046FFF7D0FF40212046E8
:100F1000FFF7CCFF0520FFF74FFD80212046FFF7AC
:100F2000C3FF0520FFF748FD2046BDE810404021E3
:100F3000FFF7BABF000C014010B500F0F5FA0A4CFB
:100F400080212046FFF7B0FF40212046FFF7AEFF8B
:100F50000520FFF731FD80212046FFF7A7FFBDE800
:100F600010400520FFF728BD000C014070B5054674
:100F700000F0DAFA0024204E280604D580213046FD
:100F8000FFF794FF03E080213046FFF78DFF02203A
:100F9000FFF712FD40213046FFF788FF0320FFF7DF
:100FA0000BFD40213046FFF77FFF6806050E641CED
:100FB000E4B2082CE0D300F0A5FA0220FFF7FCFC15
:100FC00040213046FFF772FF80213046FFF765FF72
:100FD00078B100240320FFF7EFFC40213046FFF7F3
:100FE00063FF00F0A1FA80213046FFF75FFF204643
:100FF00070BD0124EEE70000000C014070B504460E
:101000000E460F4D4FF0FF31286801F059FFFFF7F2
:1010100075FF2046FFF7AAFF70B13046FFF7A6FF25
:1010200060B10124FFF788FF00231A46194628689B
:1010300001F0F6FD204670BD0024F3E70024F1E73F
:101040007C0000207FB50121082000F04DFA01212D
:10105000084600F049FA10208DF80F0003208DF8A3
:101060000E004FF47044ADF80C40204D03A9284603
:10107000FFF7C0FE21462846FFF716FF48218DF8EE
:101080000F102111ADF80C1003A92846FFF7B2FE8E
:1010900008210120FFF79AFEAC152046FFF746FE17
:1010A000019400258DF808500C208DF809000124CA
:1010B0008DF80A4001A8FFF74FFE17208DF80000B9
:1010C00005208DF801008DF802508DF80340684628
:1010D00000F074F9064C2068002805D10022012197
:1010E000082001F01BFD20607FBD0000000C0140C6
:1010F0008400002008B500270026DFF898904FF400
:10110000704B4FF4805A4FF48078002000900025F7
:1011100059464846FFF7CAFE0AFA05F081B248462A
:10112000FFF7C2FE0A20FFF747FC002408FA04F08C
:1011300081B24846FFF7B1FE80B1641C042CF5DB98
:101140006D1C042DE4DB9DF80000B84219D1C0B13C
:10115000032E09D206F10106F6B216E00E4800EBA6
:101160008500005D0090EEE70FD10C484FF00003C2
:101170001A466946006801F053FD042600F09EF906
:1011800003E0B84201D000260746142001F024FBFA
:10119000BBE70000000C0140CC35000884000020B3
:1011A000002801D0082100E00021024801704E20F3
:1011B000FFF724BF8000002010B5012000F054F894
:1011C000BDE810400220FFF7EBBB10B53220FFF75F
:1011D000E7FB302000F0D4F80520FFF7E1FB3020DA
:1011E00000F0CEF8C820FFF7E7FB202000F0C8F899
:1011F000282000F039F80C2000F036F8062000F026
:1012000033F8BDE81040FFF7D7BF10B5044602E041
:10121000641C00F0D1F820780028F9D110BD70B519
:1012200005460C462046FFF71BF9C1B200221029E3
:1012300005D2C1F1100101EBD170C0F34702114694
:10124000284600F02DF82046BDE87040FFF7DDBFCE
:101250000EB5024603A16846FFF77EF86846FFF721
:10126000D4FF0EBD2564000010B500F0F0010007AA
:10127000040E084600F084F82046BDE8104000F057
:101280007FB810B500F0F001491C0007040E641C83
:10129000084600F075F82046BDE8104000F070B830
:1012A000002804D0C0200844C0B2FFF7DDBF802072
:1012B000F9E7000010B5FFF77FFF04A10020FFF75A
:1012C000AEFFBDE810400020FFF76ABB4D617420FF
:1012D0006B6861752064756E6700000010B5044688
:1012E000FFF76AFF00210846FFF7DAFF08A0FFF7C3
:1012F0008CFF00210120FFF7D3FF09A0FFF785FF36
:101300002046FFF7A5FFBDE8104007A0FFF77DBF0F
:10131000567569206C6F6E6720646F69000000006D
:10132000436F6E20000000002067696179000000B3
:1013300010B50446FFF740FF00210846FFF7B0FF55
:1013400008A0FFF762FF00210120FFF7A9FF09A015
:10135000FFF75BFF2046FFF77BFFBDE81040002052
:10136000FFF71EBB536169206D6174206B68617566
:1013700021000000436F6E206C61693A200000007C
:1013800070B504460B4D297844EA010040F0040191
:101390004E20FFF733FE3220FFF70EFB287844EA99
:1013A00000014E20FFF72AFEBDE870403220FFF713
:1013B00003BB000080000020FFF763BF70B50F2360
:1013C000C27801260178002A1ED0144A126802F45D
:1013D000E062C2F5E062120AC2F10404D34045782B
:1013E000A54082781A402A43120101F1E02181F8D8
:1013F0000024007800F01F018E404009800000F1B9
:10140000E020C0F8006170BD01F01F00864048096F
:10141000800000F1E020C0F8806170BD0CED00E0BC
:101420000249084302490860704700000000FA05BD
:101430000CED00E010B5002806D008220449FFF7A3
:101440002EF818B1002010BD002010BD012010BDE5
:10145000D421002070B5064C0025256065602572FA
:10146000082204492046FFF7FBF8257270BD0000F2
:10147000D4210020DC35000870B50446002C12D0C1
:101480002046FEF7EDFF082800D90820064A002371
:10149000136053601372002102E0655C5554491CCF
:1014A0008142FAD3135470BDD421002010B501F04D
:1014B00017FE0149086010BD8C00002010B501F036
:1014C0000FFE0149086010BD8C000020054A00296C
:1014D00003D0D1690143D1617047D1698143D161A2
:1014E0007047000000100240054A002903D09169AE
:1014F0000143916170479169814391617047000098
:101500000010024008B548208DF803008020ADF897
:10151000000003208DF8020069460248FFF76AFCCC
:1015200008BD0000000C014008B514208DF8030030
:101530008020ADF8000003208DF8020069460248C3
:10154000FFF758FC08BD0000000C0140002000F02F
:101550004EB8000030B589B001210420FFF7C4FF68
:1015600001210846FFF7B2FF18208DF82300032061
:101570008DF822000220ADF8200008A91948FFF7D5
:1015800039FC4720ADF814000024ADF8164044F6AD
:101590001F60ADF81800ADF81A404FF0804505A95E
:1015A000284600F02DF96021ADF804100121ADF8B6
:1015B000061040F2DC51ADF80A10ADF80C4001A95C
:1015C000284600F0CFF80821284600F00FF9012145
:1015D000284600F0AFF80121284600F0B7F809B01E
:1015E00030BD0000000801405A20AFF300804FF4E6
:1015F000FA614843B421B0FBF1F000F5FA70090735
:1016000008877047AFF300800CB50022019200926A
:101610002748016841F4803101604FF4A0630168FC
:1016200001F4003100910199491C0191009911B90F
:1016300001999942F3D10168890302D501210091F2
:1016400000E000920099012930D11A490A6842F05D
:1016500010020A600A6822F007020A600A6842F073
:1016600002020A604168416041684160416841F49A
:1016700080614160416821F47C114160416841F41E
:10168000E8114160016841F08071016001688901E1
:10169000FCD5416821F003014160416841F002013D
:1016A00041604168C1F381010229FAD10CBD0000FB
:1016B000001002400020024010B5502080F3118835
:1016C000BFF34F8FBFF36F8F01F010FD18B10449C6
:1016D0004FF080500860002080F3118810BD00009A
:1016E00004ED00E010B50F48016841F00101016010
:1016F00041680D4A1140416001680C4A1140016087
:10170000016821F480210160416821F4FE014160FB
:101710004FF41F018160FFF775FF05494FF000602E
:10172000086010BD001002400000FFF8FFFFF6FE49
:1017300008ED00E0002904D0018841F0800101801B
:101740007047018821F0800101807047002904D092
:10175000018841F0010101807047018821F00101F9
:101760000180704770B5028C22F010020284028C56
:101770008388048B24F4E04424F440760D884FF6EB
:10178000FF7404EA0525354322F020020E8904EA9D
:10179000061616434A8804EA02123243114EB0423A
:1017A00002D0114EB04217D122F080024E8904EAD5
:1017B0000616164326F040068A8804EA02123243CF
:1017C00023F4806323F400638E8904EA86061E43B3
:1017D000CB8904EA8303334383800583C988018767
:1017E000028470BD002C014000340140028B22F4C1
:1017F00000624FF6FF7303EA012111430183704732
:1018000030B502881B4C1C4DA0420DD0A8420BD015
:10181000B0F1804F08D0194B984205D0184B984230
:1018200002D0184B984203D122F070034A881A4321
:10183000154B984206D0154B984203D022F44073C2
:10184000CA881A4302808A8882850A880285A04253
:101850000AD0A84208D00E4A904205D00D4A9042C4
:1018600002D00D4A904201D1097A0186012181827C
:1018700030BD0000002C0140003401400004004055
:1018800000080040000C0040001000400014004020
:1018900000400140004401400048014070B5054649
:1018A0000C4600F011F82846FFF746F800F006F85D
:1018B0002046BDE87040FFF73FB8000020210148F6
:1018C000FFF7F2BA000C014020210148FFF7EEBA01
:1018D000000C014010B5FFF76FFC00210846FFF730
:1018E000DFFC06A0FFF791FC00210120FFF7D8FCE8
:1018F000BDE8104005A0FFF788BC00002A3A204D43
:101900006F20637561202850494E2900413A2044D8
:101910006F692050494E000010B50220FEF7D2FF3B
:1019200013494FF080500860BFF34F8FBFF36F8FA4
:10193000FFF7C0FC00210120FFF7B2FC0DA0FFF76C
:1019400064FCFFF751FE40F6B83000F045FFFFF7AA
:10195000FDFDFFF731FC0BA10020FFF760FC4FF409
:101960007A7000F039FFBDE81040FFF7B3BF000008
:1019700004ED00E044616E67206D6F206375612E99
:101980002E2E000043756120646120646F6E670035
:101990001CB54FF44070FFF743FDFFF7A3FEFEF7C1
:1019A000E1FFFFF785FAFFF710FC0120FFF7F8FBD6
:1019B000FFF748FBFEF766FFFFF7CCFDFFF74AFD98
:1019C00000F022FE00240320CDE9000423464FF45A
:1019D000007211A1124801F065FB0225CDE9005407
:1019E000EE01002332460FA1104801F05BFB0120FD
:1019F000CDE90004002332460DA10F4801F052FB4F
:101A0000CDE90054002380220CA10E4801F04AFBCE
:101A100000F0B6FFFEE70000446F6F7200000000A8
:101A2000D10900084B65797061640000F510000869
:101A300042757A7A65720000E1080008506F776598
:101A4000720000000D2600082DE9F0470446894683
:101A50001C4DEE686F6BD5F838802868001D00F0CB
:101A60000FFD601C17D1B9F1000F14D0164948685A
:101A70002A68906083682A68D3602A688368121D88
:101A80005A602A68121D8260286841610868401CFB
:101A90000860BDE8F087344428684460B44206D248
:101AA00029684046BDE8F047091D00F009BD2968D6
:101AB0003846091D00F004FDA86A8442E9D2AC62F0
:101AC000E7E70000000000209801002070B5044600
:101AD00000F00EFD244DA868401CA860286810B1D5
:101AE000686938B10CE02C60A868012808D100F0C2
:101AF000F5F905E02868E16AC06A884200D82C60E0
:101B0000686A401C6862A064E06A2969884200D95A
:101B10002861164A00EB800002EB80004068A0605C
:101B20008168E1608368211D59608160E06A00EB93
:101B3000800002EB8001616152F82010491C42F8DC
:101B4000201000F0F5FC686900280CD02868E16AD4
:101B5000C06A884207D206494FF080500860BFF340
:101B60004F8FBFF36F8F70BD00000020E400002096
:101B700004ED00E010B500F0BBFC0E4C2068A0B9ED
:101B80000D4800F08FFC0C48143000F08BFC0A4824
:101B9000E0601430206100220C210A2000F0BEFF1A
:101BA000206010B105A100F047FDBDE8104000F035
:101BB000BFBC000040000020AC010020546D7251F9
:101BC0000000000070B50C4D0C4E11E000F090FCD0
:101BD000F068C468201D00F053FCA868401EA8608F
:101BE0006868401E686000F0A3FC204600F0AAF878
:101BF00068680028EAD170BD000000208401002040
:101C000030B40B46026C002A0CD0C1681144C1608C
:101C10008468A14201D30168C160C16830BC184624
:101C2000FEF788BC30BC70472DE9F04104461746EA
:101C30000026A56B226C002A10D0C7B1E068FEF721
:101C400079FCE168206C091AE1602268914202D2B5
:101C5000A168081AE060022F16D017E02068A8B922
:101C6000A06801F0DBFA06460020A0600EE0606884
:101C7000FEF760FC216C606808446060A1688842DF
:101C800004D32068606001E005B16D1E6D1CA56382
:101C90003046BDE8F081000070B588B0002003AA8E
:101CA0000DA1095C115411B1401C1428F8DB00246B
:101CB0000B4E00250B4806EB8401CDE900510023B3
:101CC000802203A901F0EEF9002802D0641C012C47
:101CD000F0DB08B070BD000049444C450000000036
:101CE0003C000020D91D00082DE9FF5F8146DDE999
:101CF0000E788A4616469B46B00000F007FB054664
:101D000028000ED07C2000F001FB04462CB17C2181
:101D10002046FEF77EFC256304E0284600F01EFC0A
:101D200000E0002454B10020CDE90240CDE9007864
:101D30005B4632465146484600F07FF804B02046E4
:101D4000BDE8F09F10B50446206B00F007FC20466C
:101D5000BDE8104000F002BC416A002904D0006BCD
:101D60000068C0F105007047002070470749CA6845
:101D70001168002904D00021016019B100207047CA
:101D80000121F9E7D068006870470000400000209A
:101D90004FF400510E48420706D0C01D20F0070046
:101DA0000B49411AC1F500510A4A106000235360E3
:101DB0000144083921F00701143A11604B600B60AF
:101DC0000B1A4360016040689060506070470000EB
:101DD000D401002068000020074E4FF08054074DCA
:101DE000FFF7F0FE30680128FAD92C60BFF34F8F5F
:101DF000BFF36F8FF4E70000E400002004ED00E083
:101E0000002808D0002181600160C16000231A46CB
:101E1000194600F005BF704770B51D46049C0029A7
:101E200009D02260E06321640121204600F09EFE7B
:101E300084F84C5070BD2460F4E72DE9F0478146EA
:101E4000DDE908680A9C0D4617469A46B900A522A6
:101E5000206BFEF7B4FB206B7F1E00EB870020F0A9
:101E60000707780707D0502080F31188BFF34F8F02
:101E7000BFF36F8FFEE765B100202218295C82F85E
:101E80003410295C11B1401C1428F6D3002084F8CA
:101E90004700052E07D3502080F31188BFF34F8FE2
:101EA000BFF36F8FFEE7E6622665201D00F005FB9D
:101EB00004F1180000F001FB2461C6F10500A061E7
:101EC000646252464946384600F0CCFA2060B8F1C8
:101ED000000F01D0C8F80040BDE8F08770B50024BD
:101EE000124D04EB840005EB800000F0DBFA641C6B
:101EF000052CF6D30D48643000F0D4FA0B48783046
:101F000000F0D0FA09488C3000F0CCFA0748A03035
:101F100000F0C8FA0548B43000F0C4FA0349044898
:101F2000643141631431816370BD0000E40000201E
:101F30000000002030B51B4900E011460A688242CB
:101F4000FBD3184B99420DD0174B994202D3174B34
:101F5000994207D9502080F31188BFF34F8FBFF308
:101F60006F8FFEE74B685C18844203D140681844C9
:101F7000486008460D6843681C18AC420DD1094CF6
:101F8000143C2468A24206D052681A4442600A688F
:101F90001268026002E0046000E00260814200D04A
:101FA000086030BD68000020D4010020D32100204B
:101FB00070B50024416000610C4D91420AD8D11ADD
:101FC0008269914201D301240EE0011D286900F0CD
:101FD00077FA09E09A4203D2994201D3012403E03F
:101FE000011DE86800F06CFA204670BD400000203A
:101FF00010B5044600F07CFAA06B20B1002400F07C
:1020000097FA204610BD0124F9E710B5044600F008
:102010006FFAA06BE16B884201D1012400E000243B
:1020200000F086FA204610BD70B505460E460D48F4
:10203000C068C068C468201D00F022FA94F8280027
:10204000410705D532462946204600F0B9F803E09D
:1020500000F0FE0084F828002046216ABDE87040A8
:1020600008470000400000207FB50020019002904A
:102070000390374E63E00198002860DB039C6069A1
:1020800010B1201D00F0FCF9684600F0BDF80546CF
:1020900001980A2853D2DFE800F0520505282E46A1
:1020A0000505282E94F8280040F0010084F8280047
:1020B0000298A169034601442A462046FFF778FFAB
:1020C00040B394F82800410707D50298A1692A4631
:1020D0000144204600F074F803E000F0FE0084F8AC
:1020E0002800216A2046884729E014F8280F00F0CC
:1020F000FE00207023E094F8280040F0010084F8EE
:1021000028000298A06130B141192B462A4620468A
:10211000FFF74EFF13E0502080F31188BFF34F8F7D
:10212000BFF36F8FFEE794F82800810703D42046A1
:1021300000F014FA03E000F0FE0084F8280000220A
:1021400001A9306800F01EFE002894D17FBD000078
:1021500040000020F8B506460D4600F03BFC6846FE
:1021600000F052F80446009810B101F06BF9F8BD88
:1021700045B9A64206D801F065F921463046FFF779
:1021800053FFF8BD0C481DB10169096891B10025E4
:10219000311B2A46006800F075FA01F053F9002857
:1021A000EFD106494FF080500860BFF34F8FBFF367
:1021B0006F8FF8BD0125EBE74000002004ED00E043
:1021C00070B505460C46164604E0A8690444296A21
:1021D00028468847A8692346011932462846FFF752
:1021E000E7FE0028F1D170BD0648416B096800295F
:1021F00004D0416BC9680968816270474FF0FF31B4
:10220000816270470000002070B5054600F068FF4D
:102210000446074EB068844204D200F00BF8012057
:10222000286001E000202860B460204670BD0000F6
:102230004000002070B5094C4FF0FF3504E0C06845
:1022400000682946FFF7F0FEE0680268002AF6D130
:10225000E0682169E160206170BD0000400000205D
:1022600009484068401C07D0502080F31188BFF314
:102270004F8FBFF36F8FFEE7502080F31188BFF3BD
:102280004F8FBFF36F8FFEE77000002008B56846E0
:10229000FFF76CFD0099FFF75DFFFFF7E5FEF6E73E
:1022A0002DE9F041044600F023F994F9455004F17A
:1022B000240609E0606A48B1304601F053F808B1DD
:1022C00000F0BAFA6D1E6DB2002DF3DC4FF0FF3650
:1022D00084F8456000F02CF900F00AF994F94450B4
:1022E00004F1100709E0206948B1384601F03AF8D6
:1022F00008B100F0A1FA6D1E6DB2002DF3DC84F878
:102300004460BDE8F04100F013B900002DE9F04150
:1023100004460025002C11D014F1090F0DD8083403
:1023200060070BD004F00700C0F10800C1438C42E5
:1023300001D8044402E0002400E0002400F04AFB3D
:10234000404E306808B9FFF723FD002C6ADDD6F84F
:1023500004C0644566D83B481430014609683A4FCA
:10236000B94202D3394B994215D9502080F31188D4
:10237000BFF34F8FBFF36F8FFEE708461146B94298
:1023800001D3994207D9502080F31188BFF34F8FB2
:10239000BFF36F8FFEE74A68A24202D20A68002AA2
:1023A000EBD1326891423DD005680835BD4201D37A
:1023B0009D4207D9502080F31188BFF34F8FBFF3A0
:1023C0006F8FFEE70A6802604A68A24207D2502077
:1023D00080F31188BFF34F8FBFF36F8FFEE7131B9E
:1023E000102B0FD90A19570707D0502080F31188F6
:1023F000BFF34F8FBFF36F8FFEE753604C600368EE
:10240000136002604A68ACEB02007060B3689842E7
:1024100000D2B06042F00040486000200860F068E0
:10242000401CF06001F00EF8680707D0502080F3E0
:102430001188BFF34F8FBFF36F8FFEE72846BDE8CB
:10244000F081000054000020D4010020D32100209E
:1024500003480068002802D0416D491C416570475F
:102460000000002020384FF08073C36121F001018B
:1024700081610249416140F82029704761220008CA
:102480000169D0E901329A60D0E901235A604A68B3
:10249000824201D182684A60002202610868401EBF
:1024A0000860704700F1080141604FF0FF32826020
:1024B000C160016100210160704700210161704726
:1024C00030B50C68621C02D000F1080202E002691B
:1024D00004E01A4653681D68A542FAD953684B6058
:1024E00099608A60516008610168491C016030BDD3
:1024F000502080F31188BFF34F8FBFF36F8F0A49CD
:102500004868401C486001280CD10848006810F059
:10251000FF0F07D0502080F31188BFF34F8FBFF318
:102520006F8FFEE7704700007000002004ED00E0B0
:1025300009494868002806D0401E4860002801D19B
:1025400080F311887047502080F31188BFF34F8FBC
:10255000BFF36F8FFEE700007000002070B5002809
:1025600038D0083804461C48844202D31B488442B1
:1025700007D9502080F31188BFF34F8FBFF36F8FBF
:10258000FEE76068002807DB502080F31188BFF366
:102590004F8FBFF36F8FFEE7216839B1502080F372
:1025A0001188BFF34F8FBFF36F8FFEE720F000401D
:1025B000606000F00FFA0A4D60686968084468605E
:1025C0002046FFF7B7FC2869401C2861BDE8704031
:1025D00000F038BF70BD0000D4010020D3210020DE
:1025E000540000204FF0E020002101618161054985
:1025F0004FF47A720968B1FBF2F1491E416107217B
:1026000001617047900000207047000000F068FDF5
:10261000084C206042F210754FF4FA7600F060FD2D
:102620002168401AA84201D900F050F8304600F065
:10263000D3F8F3E78C00002070B5002300280AD0FF
:10264000C9B100220E4D05EBC204666886420AD16C
:1026500005EBC2030FE0502080F31188BFF34F8FCA
:10266000BFF36F8FFEE71BB955F8326006B92346FA
:10267000521C082AE7D3002B01D01960586070BDA6
:10268000A400002070B504460D461646FFF730FF43
:1026900094F944304FF000005B1C01D184F84400F1
:1026A00094F94510491C01D184F84500FFF740FF1B
:1026B000A06B28B93246294604F1240000F0DCF86A
:1026C0002046BDE87040FFF7EBBD00007FB500205D
:1026D000FEF766FD00F07EF901211D20FEF704FFE4
:1026E00000248DF80F4049F6FF70ADF80C0003A9E7
:1026F0003448FEF77FFB4FF6FF70ADF80C0003A9DE
:102700003148FEF777FB10208DF80F0002208DF87E
:102710000E008503ADF80C502C4E03A93046FEF791
:1027200069FB29463046FEF7BFFB48208DF80F00B5
:10273000ED11ADF80C5003A93046FEF75BFB2946BE
:102740003046FEF7B3FB08210120FEF73FFB019561
:102750008DF808400C208DF8090001268DF80A60DC
:1027600001A8FEF7F9FA17208DF800008DF8014056
:102770008DF802408DF803606846FEF71FFE28467C
:10278000FEF7D4FA1248016821F0040101604FF00D
:10279000E020016921F00101016130BF016941F0D0
:1027A00001010161FEF74EFCFEF7D4FEFEF7CEFEFE
:1027B00000F048FE0120FEF7F3FC00F091FC054913
:1027C00008607FBD0008014000100140000C01407E
:1027D00010ED00E08C00002010B502460020002A19
:1027E00013D000F0F7F80E48006B012807D05020F6
:1027F00080F31188BFF34F8FBFF36F8FFEE7002187
:102800001046FFF721F900F01DFE002807D1054909
:102810004FF080500860BFF34F8FBFF36F8F10BD34
:102820000000002004ED00E002490A6A0260C96865
:102830004160704700000020014901200860704796
:102840001C00002010B50C4600280AD00949096870
:102850001831FFF735FE2046BDE810400121FFF793
:10286000F3B8502080F31188BFF34F8FBFF36F8F01
:10287000FEE7000000000020F0B40C4600281AD04B
:102880004168114B1D68E9618D681E6835621D68DD
:102890008E68183575601D6818358D6019688862F6
:1028A0000168491C01600AB14FF0FF342046F0BCBA
:1028B0001146FFF7C9B8502080F31188BFF34F8F3E
:1028C000BFF36F8FFEE700000000002070B50446E4
:1028D00000284FD0626DA2B1206D884200D301461E
:1028E000E06A884246D0012A44D1234E326894429D
:1028F0000FD1502080F31188BFF34F8FBFF36F8F3C
:10290000FEE7502080F31188BFF34F8FBFF36F8F26
:10291000FEE7E162A269002A02DBC1F10501A161C3
:10292000164D00EB8000616905EB8000814221D1EA
:10293000201DFFF7A5FDE06A3169884200D93061AA
:1029400000EB800005EB80004068A0608168E160DA
:102950008268211D51608160E06A00EB800005EB18
:1029600080006061E06A00EB800055F82010491C8F
:1029700045F8201070BD000000000020E400002099
:1029800010B5FFF789F9012801D100F0F9FD104CCD
:10299000012802D0401C12D00FE0502080F3118893
:1029A000BFF34F8FBFF36F8F4FF0FF30A062012056
:1029B00060610020E06000F04BF8E06A10BD50203C
:1029C00080F31188BFF34F8FBFF36F8FFEE70000D6
:1029D000000000200248016B491C016370470000A1
:1029E0000000002010B5184B196B03F11C000029E2
:1029F00002D00121016010BD002101601869134956
:102A000001E0C8B1401E00EB800251F82220002AEC
:102A1000F7D000EB800201EB82014A6852684A60FD
:102A200001F10804A24201D1CA684A604968C96834
:102A300019601861186810BD502080F31188BFF329
:102A40004F8FBFF36F8FFEE700000020E4000020EF
:102A50003EB500250195284908780290FF200870AE
:102A6000087800909DF80000244C00F05000207081
:102A700000280CD09DF800205020904316D0502004
:102A800080F31188BFF34F8FBFF36F8FFEE75020A5
:102A900080F31188BFF34F8FBFF36F8FFEE701986C
:102AA000401C01909DF80000400000909DF800003F
:102AB0000006F4D4019808281BD00198C0F1070043
:102AC000A060207A000200F4E060A0609DF8080099
:102AD00008700B48016841F47F010160016841F012
:102AE0007F410160FFF77EFD6560FDF763FB00201D
:102AF0003EBDA560E5E7000000E400E070000020B6
:102B000020ED00E010B502460021012000F006F89B
:102B100004462046FFF774F9204610BDF8B5054677
:102B20000E461746002D19D04FF0FF30B0FBF5F0E0
:102B3000B04213D305FB06F010F1510F0ED8503000
:102B4000FFF7E4FB04463CB1224650323B46314697
:102B500028460094FFF760F92046F8BD502080F326
:102B60001188BFF34F8FBFF36F8FFEE72DE9F04160
:102B700004460F460125002C2AD0E06B80B3AE1E20
:102B8000B6FBF0F1206C81423BD3FFF7B1FCD4E9F6
:102B90000F20216802FB0011A1600021A1632168C0
:102BA0006160E06B2268216C401E00FB0121E16046
:102BB00084F8446084F8456004F110008FB1FFF799
:102BC00071FC04F12400FFF76DFCFFF7B1FC19E084
:102BD000502080F31188BFF34F8FBFF36F8FFEE754
:102BE0000FE021690029F0D000F0BCFB0028ECD0F8
:102BF0000A494FF080500860BFF34F8FBFF36F8FCB
:102C0000E3E7002515B12846BDE8F081502080F3A8
:102C10001188BFF34F8FBFF36F8FFEE704ED00E025
:102C20002DE9FF4782B004468A461E460025002C47
:102C300003D0BAF1000F08D011E0502080F31188C2
:102C4000BFF34F8FBFF36F8FFEE7206C38B150207A
:102C500080F31188BFF34F8FBFF36F8FFEE7022E13
:102C60000AD1E06B012807D0502080F31188BFF310
:102C70004F8FBFF36F8FFEE700F024FA48B9049836
:102C800038B1502080F31188BFF34F8FBFF36F8F9F
:102C9000FEE74FF000094FF08057DFF8E480FFF7C0
:102CA00027FCA06BE16B884205D3022E03D0049869
:102CB00008B325B327E0324651462046FEF7B4FF5D
:102CC000616A59B104F1240000F04CFB68B1C8F806
:102CD0000070BFF34F8FBFF36F8F06E028B1C8F8C5
:102CE0000070BFF34F8FBFF36F8FFFF721FC012000
:102CF00006B0BDE8F087FFF71BFC0020F8E7684648
:102D0000FFF792FD0125FFF713FCFFF763FEFFF7C6
:102D1000EFFB94F94400401C01D184F8449094F9ED
:102D20004500401C01D184F84590FFF701FC04A93F
:102D3000684600F077F930B12046FFF7B1FA00F0AD
:102D400081FB0020D4E72046FFF75FF990B104F142
:102D500010000499FFF776FD2046FFF7A1FA00F076
:102D600071FB00289BD1C8F80070BFF34F8FBFF3F1
:102D70006F8F94E72046FFF793FA00F063FB8EE72E
:102D800004ED00E02DE9F74783B004468A460026AB
:102D9000002C03D0BAF1000F08D011E0502080F3CE
:102DA0001188BFF34F8FBFF36F8FFEE7206C38B1F0
:102DB000502080F31188BFF34F8FBFF36F8FFEE772
:102DC00000F080F948B9059838B1502080F3118897
:102DD000BFF34F8FBFF36F8FFEE700274FF0805890
:102DE000DFF8D890FFF784FBA56BC5B151462046AC
:102DF000FEF706FF6D1EA563206950B104F11000B7
:102E000000F0B0FA28B1C9F80080BFF34F8FBFF3CC
:102E10006F8FFFF78DFB012006B0BDE8F0870598A6
:102E200008B126B107E0FFF783FB0020F4E701A813
:102E3000FFF7FAFC0126FFF77BFBFFF7CBFDFFF75F
:102E400057FB94F94400401C01D184F8447094F974
:102E50004500401C01D184F84570FFF769FB05A9C6
:102E600001A800F0DFF858B12046FFF719FA00F08A
:102E7000E9FA2046FFF7BCF80028B3D00020CBE7E2
:102E80002046FFF7B5F890B104F124000599FFF74B
:102E9000D9FC2046FFF704FA00F0D4FA0028A1D1AB
:102EA000C9F80080BFF34F8FBFF36F8F9AE72046BA
:102EB000FFF7F6F900F0C6FA94E7000004ED00E031
:102EC0002DE9F34383B004460025A946002C09D020
:102ED000206C78B1502080F31188BFF34F8FBFF37F
:102EE0006F8FFEE7502080F31188BFF34F8FBFF341
:102EF0006F8FFEE700F0E6F848B9049838B150202B
:102F000080F31188BFF34F8FBFF36F8FFEE700266A
:102F10004FF08057DFF80881FFF7EAFAA06BC8B1DD
:102F2000401EA063206810B9FFF792FAA0602069E4
:102F300050B104F1100000F015FA28B1C8F8007083
:102F4000BFF34F8FBFF36F8FFFF7F2FA012005B089
:102F5000BDE8F083049808B125B107E0FFF7E8FA6F
:102F60000020F4E701A8FFF75FFC0125FFF7E0FA76
:102F7000FFF730FDFFF7BCFA94F94400401C01D183
:102F800084F8446094F94500401C01D184F8456000
:102F9000FFF7CEFA04A901A800F044F8C8B1204612
:102FA000FFF77EF900F04EFA2046FFF721F80028DF
:102FB000B2D0B9F1000F0AD0FFF79AFA2046FEF717
:102FC000CBFE0146A068FFF781FCFFF7B1FA0020B5
:102FD000BDE72046FFF70CF8E0B1206838B9FFF7ED
:102FE00087FAA06800F06CF98146FFF7A1FA04F1B6
:102FF00024000499FFF726FC2046FFF751F900F062
:1030000021FA002888D1C8F80070BFF34F8FBFF3B2
:103010006F8F81E72046FFF743F900F013FA7BE753
:1030200004ED00E02DE9F04105460C46002D14D0DA
:10303000DCB1FFF75DFA1A4EF0686B68C11A2268BE
:10304000571C1AD02F68D6F820C00026674516D026
:10305000834214D8012526601CE0502080F311889B
:10306000BFF34F8FBFF36F8FFEE7502080F31188BF
:10307000BFF34F8FBFF36F8FFEE700250AE08A4250
:1030800006D9501A20602846FFF7CEFB002501E044
:1030900026600125FFF74CFA2846BDE8F0810000C4
:1030A000000000207CB5DDE90654CDE90054FEF7B0
:1030B0001BFE18B1FEF70AFD01207CBD4FF0FF306A
:1030C0007CBD000005484169002903D0006B18B1A0
:1030D0000020704701207047022070470000002048
:1030E0000148C06870470000000000202DE9F04151
:1030F0000025484E306B002805D0B069401CB061F7
:103100002846BDE8F081F468641CF4609CB9706BDB
:10311000006838B1502080F31188BFF34F8FBFF3A0
:103120006F8FFEE7706BB16B7163B063306A401CE8
:103130003062FFF759F8B06A374F84420FD34FF02F
:10314000000C706B006838B1706BC068C16848686B
:10315000844214D2B06202E04FF0FF30B0623068B7
:10316000C06A00EB800057F82000012800D9012533
:1031700028481C3000680028C2D00125C0E74A69F1
:10318000D1E902309860D1E90203586050680B1D04
:10319000984201D1C8685060C1F814C01068401E40
:1031A00010608A6A9AB1D1E90780C8F80800D1E9AD
:1031B0000708C8F80400506801F11808404501D11B
:1031C000086A5060C1F828C01068401E1060C86AC4
:1031D0003269904200D9306100EB800007EB80003B
:1031E00042688A609068C860906843609360C86A6B
:1031F00000EB800007EB80024A6157F82020521C48
:1032000047F82020C86A3168C96A884299D90125DF
:1032100097E7000000000020E400002070B504469D
:103220000020002C3ED0244D29688C4207D050202D
:1032300080F31188BFF34F8FBFF36F8FFEE7616D8F
:1032400089B3491E6165236DE26A9A422AD000293A
:1032500028D1201DFFF714F9206DE062C0F10500B0
:10326000A061E06A2969884200D92861134A00EB0D
:10327000800002EB80004068A0608168E1608368A4
:10328000211D59608160E06A00EB800002EB800044
:103290006061E06A00EB800052F82010491C42F89F
:1032A0002010012070BDFFE7502080F31188BFF38C
:1032B0004F8FBFF36F8FFEE700000020E400002077
:1032C00070B504460020002C3FD0244DE16A2A68E6
:1032D000D26A91423AD2A069002804DB2868C06A09
:1032E000C0F10500A061E06A1D4E00EB800061693D
:1032F00006EB8000814224D1201DFFF7C1F8286829
:10330000C06AE0622969884200D9286100EB800028
:1033100006EB80004068A0608168E1608268211D42
:1033200051608160E06A00EB800006EB8000606124
:10333000E06A00EB800056F82010491C46F8201087
:1033400002E02868C06AE062012070BD216D2A6831
:10335000D26A9142F9D2012070BD00000000002025
:10336000E400002030B5C068C06800282CD0816A15
:10337000D0E907329A60D0E907235A604B6800F120
:103380001802934201D1036A4B60002484620B68E7
:103390005B1E0B60294B196BF1B1294C6168C1614F
:1033A0008D6805628D686A608A6084622168491C44
:1033B0002160C06A1968C96A88423CD901201F4A45
:1033C00001211C32116030BD502080F31188BFF301
:1033D0004F8FBFF36F8FFEE74169D0E90252AA60B9
:1033E000D0E902256A604D68021D954201D1C56889
:1033F0004D6044610C68641E0C60C16A1C69A14286
:1034000000D919610E4C01EB81018C3C04EB810168
:10341000496881608D68C5608D686A608A60C16A2C
:1034200001EB810104EB8102426154F82120521C1E
:1034300044F82120BDE7002030BD0000000000203E
:10344000700100202DE9F0470024A246FFF750F854
:103450000025484F386B28B1386B401E3863386BF5
:1034600040B181E0502080F31188BFF34F8FBFF34C
:103470006F8FFEE7B868002876D03E4E4FF0000808
:103480003D4A4FF001091C364EE0D068C468A16A7D
:10349000D4E907309860D4E9070358604B6804F119
:1034A0001800834201D1206A4860C4F82880086867
:1034B000401E08606069D4E902319960D4E90213C2
:1034C00059604368211D8B4201D1E3684360C4F811
:1034D000148003685B1E0360E06A3B69984200D970
:1034E0003861254B00EB80008C3B03EB800040688B
:1034F000A060D0F808C0C4F80CC0D0F808C0CCF860
:1035000004108160E06A00EB800003EB80016161E0
:1035100053F82010491C43F82010E06A3968C96A42
:10352000884201D946F8259010680028ADD10CB129
:10353000FEF75AFEBC694CB1FFF7D8FD08B146F85A
:103540002590641E002CF7D1C7F8188056F8250086
:1035500050B14FF0010A386808494FF080500860B8
:10356000BFF34F8FBFF36F8FFEF7E2FF5046BDE80A
:10357000F0870000000000207001002004ED00E052
:103580001CB50024FEF7F6FA0C48006858B10B4849
:103590000321001DCDE900100023802208A10A4864
:1035A000FFF780FD04460CB120461CBD502080F37F
:1035B0001188BFF34F8FBFF36F8FFEE740000020ED
:1035C000546D7220537663008D22000831323341EE
:1035D00034353642373839432A3023443132333494
:1035E000000000000436000800000020A4000000D5
:1035F00028010008A8360008A40000209C2700002D
:10360000440100080000000000000000000000006D
:1036100000000000000000000000000000000000AA
:10362000000000000000000000000000000000009A
:103630000400000000000000000000000000000086
:10364000000000000000000000000000000000007A
:10365000000000000000000000000000000000006A
:10366000000000000000000000000000000000005A
:103670000000000000000000AAAAAAAA00000000A2
:103680000000000008000000000000000000000032
:103690000000000000A24A0400000000000000003A
:0836A0000102030406070809FA
:04000005080000ED02
:00000001FF
